:100000000C947A040C94B2040C94B2040C94B204D0
:100010000C94B2040C94B2040C94B2040C94B20488
:100020000C94B2040C94B2040C9495320C94693381
:100030000C94C22C0C94B2040C94B2040C94B20430
:100040000C94B2040C94B2040C94B2040C94B20458
:100050000C94B2040C94492D0C94B2040C94B20488
:100060000C94B2040C94B2040C94B2040C94B20438
:100070000C94B2040C94B2040C94B2040C94B20428
:100080000C94B2040C94B2040C94B2040C94B20418
:100090000C94B2040C94B2040C94B2040C94B20408
:1000A0000C94B2040C94B2040C94B204000000004E
:1000B0000000000000000000000000000000000040
:1000C00000000080E0707838383C3C3C7C7878F860
:1000D000F0700000000080E0F0FCFE3F1F0E00000A
:1000E000000000000000000000000000000000C050
:1000F000C0C0C000000000000000000000000000C0
:100100000080E0F0FC7E3F1F0602000000000000BF
:1001100000000000000000000000000000000000DF
:1001200000000000000000000000000000000000CF
:1001300000000000000000000000000000000000BF
:1001400000800003070F1E1C3C387870F0E0E0C010
:10015000800000C0F8FEFFFF3799CCFCFC7C0080DB
:10016000E0F0F87C3C9CFCFC38000CDCFCFCFF1F45
:100170000F0F0DE0F0F8FC3C1C0EEEFC7C0080F84C
:10018000FEFFDFE771F8FCFCFC7C1880E0F0FCFE71
:100190001C0CC0F0F8FC7C180000000000000000FF
:1001A000000000000000000000000000000000004F
:1001B000000000000000000000000000000000003F
:1001C0000F1F3E7C78F8F0F0F0F0E0E0F0F0793FBF
:1001D0001F003E7FFF0F01003FFFFDF1C0800C3F7D
:1001E0007F7FC7E66333390C00003E7FFFFFC060AE
:1001F0002000071F3F7F606070301808007CFF3FC1
:100200000F0701107E7F3F3300003C3F7F7F733834
:10021000DCFFFF7F0F010000000000000000000075
:1002200000000000000000000000000000000000CE
:1002300000000000000000000000000000000000BE
:1002400000000000000000000101010100000000AA
:100250000000000000000000000001030301000096
:10026000000000000000000000000000000000008E
:10027000000000000000000000000000000000007E
:1002800000000000000060C0C0C0E0E070783E1FC9
:100290000F07010000000000000000000000000047
:1002A000000000000000000000000000FA00F9005B
:1002B000A900AA00FA00F900A900AA0029001E005E
:1002C0001F0020002100220023002400250026001A
:1002D00027002A002B0014001A0008001500170040
:1002E0001C0018000C00120013002A000151040029
:1002F0001600070009000A000B000D000E000F0099
:1003000033003100E10031001D001B000600190020
:10031000050011001000360037002800F4002C0002
:100320000000000000000000000000002C002C0075
:10033000E500F400A75D3A003B003C003D003E00B4
:100340003F004000410042002D002E00005C4300B1
:1003500044004500010001000100010049000100C6
:100360002F002E000100010001004C0001000100DF
:100370005000510052004F003400300001000100D5
:100380000100010001000100010001000100E40082
:10039000E6003400A800E3000000000000000000B8
:1003A00000000000E000E2003800F500FD377A5858
:1003B0005A000004E6D6B4460200210116000000EF
:1003C000742FE5A3E0045801915D003D888986D330
:1003D000DC0AE842C324925842588FD8E75CA0D286
:1003E000616E26E888019A676C7887BC8D3709EAC8
:1003F0001EB48DA53C798586633FDCC445A3F020FF
:10040000FF20B3687235CC77FE57EDF6FF611561BA
:1004100011B6C78132BBDAE6F87A64007E8D647665
:100420001760228DC4701DC2EA255C7BE5E8981830
:10043000280F258DDAE39FDF7290E6433E1A61674D
:100440002D670D7036B40044AC0BA9C4B192604165
:100450001E574AC6D7F88B0C5E1CA1E53978FC689C
:1004600006D392E0C76ECE79BC1B6306642C189548
:1004700021CF5ED6BF2BE0E4AA507D7DA73FE76386
:100480006EB007435FEF71A4028CB4B98A7830B8BC
:10049000E3F98F2AD76459AF6982822E7F987DABAA
:1004A0009656F15E55A20085E64DB5AAC32C80474D
:1004B000025E469FBDD10AF3F1273FE73302297A56
:1004C000768E46BD587167982280697F67AC24D3C9
:1004D000B8C299F167E8FFA093566ACAD73BC32E0A
:1004E0009FA5D82F81BA47F4BB1B25261BA5024127
:1004F0005B881421BD80A69A0ACD39BD4666825715
:10050000B408E2AFA99018C715577203D09B5C7C62
:10051000C0CA1F190AC6E037896F60E9ED71F0E6BD
:100520007F907370479FC778D2B7D3CF2B8ABFA66F
:10053000C54C10D495B63D765ECB0B9D4FB8F2B945
:10054000399ED097A1D6AFA79852CFB32C9AEB1073
:10055000BE83777C3157A00DAFE74000000000005C
:10056000712BDE0342F167510001AD03D908000091
:10057000960B3874B1C467FB020000000004595A9E
:1005800001000100120300203220000002000200DE
:100590000E0300203220000003000100130300209E
:1005A0003220000004000200F80200203220F91F6F
:1005B00005000100140300203220000006000200A4
:1005C000FA02002032200000070002001003002081
:1005D0003220000008000100150300203220000036
:1005E00009000200FC0200203220E11E0A00020085
:1005F000FE0200203220E11E0B000200000300205A
:100600003220E11E0C000200020300203220E11E15
:100610000D000200040300203220E11E0E00020043
:10062000060300203220E11E0F0002000803002014
:100630003220E11E100002000A0300203220E11ED9
:10064000110002000C0300203220E11E1200020003
:1006500016030020322000001300020018030020BF
:1006600032200000140001001A0300203220000094
:10067000150000000000061F801F000000AE00AF44
:1006800000DA0281FFD9F1DB20A4A62EAF00A0C0C2
:1006900000A1C800AED580A81FD300408D14200053
:1006A00000000000000000002A2B280000000000CD
:1006B0000000000000000000000000290000000011
:1006C0002C1E3420212224342627252E362D37387F
:1006D000271E1F202122232425263333362E373888
:1006E0001F0405060708090A0B0C0D0E0F10111246
:1006F000131415161718191A1B1C1D2F3130232D12
:10070000350405060708090A0B0C0D0E0F1011120F
:10071000131415161718191A1B1C1D2F3130354CC0
:1007200000000000000000000000000000000000C9
:1007300000000000000000000000000000000000B9
:10074000000000007E0F00D4FFFFFFC7000000780C
:100750001C037600690061006C003A0066003600F8
:1007600034006300320062003300630000001E03A7
:1007700053006B006500740063006800790053004B
:100780006B006500740063006800790000001003CE
:1007900044004300500045006400690074000000FC
:1007A0000403090409025B00030100A0FA09040024
:1007B000000103010100092111010001224000078D
:1007C000058103080001090401000203000000097B
:1007D00021110100012222000705820320000107E8
:1007E00005030320000109040200010300000009C1
:1007F000211101000122810007058403200001125C
:10080000010002000000089EDC2E510100010203DD
:10081000010660FF0961A1010962150026FF00952C
:1008200020750881020963150026FF0095207508D0
:100830009102C005010902A10185020901A100057B
:1008400009190129051500250195057501810295F4
:1008500001750381010501093009311581257F9555
:10086000027508810609381581257F950175088173
:1008700006050C0A38021581257F95017508810649
:10088000C0C005010980A101850319012AB700151F
:100890000126B700950175108100C0050C0901A162
:1008A00001850419012AA002150126A002950175EF
:1008B000108100C005010906A101050719E029E71B
:1008C00015002501950875018102950175088101C2
:1008D0000507190029FF150026FF009506750881F8
:1008E0000005081901290595057501910295017505
:1008F000039101C011241FBECFEFDAE0DEBFCDBFF0
:1009000004B603FE18C08091330590913405A09180
:100910003505B09136058730904BA740B04B59F460
:100920001092330510923405109235051092360559
:10093000E0E0F8E3099511E0A0E0B1E0E4E1FCE6D5
:1009400002C005900D92AA3CB107D9F725E0AAECA8
:10095000B1E001C01D92A333B207E1F70E941B165C
:100960000C94E4350C94000082E0089560E080E08F
:100970000E940E2260E072E08CEA90E00E94252244
:1009800080E0089582E0089582E008959C013A9500
:1009900021153F4150F5FC01EE27F170BC0166279F
:1009A0007270AC01442754709C012227387094FF68
:1009B0000EC080E1EF2B09F480E0672B09F0806224
:1009C000452B09F08064232B89F08068089581E02D
:1009D000EF2B09F480E0672B09F08260452B09F0CA
:1009E0008460232B19F08860089580E00895CF93E8
:1009F000DF93EB010E94C604FE010995DF91CF91C0
:100A00000895CF93DF93EC01805E9109089720F061
:100A10006DEF77E0209711F46FEE77E0CE010E9442
:100A2000F7048C2F0E94E006DF91CF910895CF93B9
:100A3000DF93EC010E947107CE01805E9109089757
:100A400020F064E078E0209711F466EF77E0CE01C3
:100A50000E94F704DF91CF91089581E0089581E02D
:100A600008950E942F05089508950E943405089561
:100A7000A5E0B0E0EEE3F5E00C94543549835A83E9
:100A80003091D10189819A81311119C0662399F081
:100A9000222389F00E94290C182F682F89819A81BE
:100AA0000E94F00B69817A81812F0E94A41D2596F6
:100AB000E3E00C9470350E940C0C182FF3CF0E94C9
:100AC000290C69817A81F1CFFC01262F4081518167
:100AD0006281738184810E943805089581E00895C0
:100AE000CF93DF93EC0160E00E946405BE010E9499
:100AF0003505DF91CF910895E1E0F0E0DF0102C01C
:100B0000AA0FBB1F6A95E2F7BD01DF0102C0AA0F61
:100B1000BB1F4A95E2F76A2B01C0EE0F2A95EAF750
:100B2000962F9823961302C08E2B0895E0958E235E
:100B30000895242F462F682F8091EF010E947C0595
:100B40000E94500B08950E94C01408950E94C4147E
:100B5000089508950E9421080E94A9052FEF84E3BB
:100B60009CE0215080409040E1F700C000000895D3
:100B70000E94AA050E946D2D08950E94AA050E9458
:100B8000912D08950F931F93CF93DF93EC018B0169
:100B90000E944A19811106C080E0DF91CF911F9118
:100BA0000F910895B801CE010E94031C8823A1F380
:100BB000B801CE010E943105882371F3B801CE013E
:100BC0000E946227882341F3B801CE010E94832A44
:100BD000882311F3B801CE010E94C9238823E1F2D2
:100BE000B801CE010E94DB298823B1F2F80182818D
:100BF000882361F0CA35FDE5DF0701F158F4C1151E
:100C0000ECE5DE0791F0CE3DDC4591F0C8010E9495
:100C10002D05C3CFCC358DE5D80769F090F0C73AE4
:100C2000DD45A1F70E94BD05B7CF0E94B805B4CF3E
:100C30000E94A911F7CF0E94E310E8CF0E94ED10A7
:100C4000E5CF0E94F110E2CFCF93DF93EC0161E09A
:100C50000E946405BE010E94C205DF91CF910895F4
:100C60000E949E2C0E944F060E94812308950E949C
:100C700053060E94A32C089508950E943C060895EF
:100C800081E008950E94400608950895CF93C82FEB
:100C90000E943D068C2F0E944206CF91089580E06D
:100CA0000E94460608950E94CB2B0E944606089596
:100CB000CF930E94CB2BC82F8091CC018C1779F059
:100CC000C093CC010E942E2D6093CD017093CE0174
:100CD0008093CF019093D0018C2F0E944606CF9134
:100CE0000895019708F40895EFE9FFE03197F1F7CF
:100CF00000C00000F6CFABE0B0E0E1E8F6E00C9415
:100D000055354F83588769877A878B878A859B8576
:100D1000892B29F0CA0189238F3F09F041C08985B9
:100D200081110E94FC0F1E821D8285E0FE01379614
:100D3000DE01119601900D928A95E1F78091E10212
:100D400082FF12C08091FA029091FB02892B61F020
:100D50000E94BB0F882319F082E00E94B2100E940B
:100D6000970F81110E942A108C819D81892B61F43B
:100D700049815A816B817C818D819E810E94EE0E1A
:100D80002B96E2E00C94713589819A8189238F3FFB
:100D900079F3CE0101960E946E058111E9CFF0CF63
:100DA0008091D2019091D30101969093D3018093C9
:100DB000D201B5CFFC01808191810E94560C08952B
:100DC000CF93C82F8823C9F08238C9F40E94CB2B57
:100DD00081FD13C089E30E947D0F0E9438102FEF20
:100DE00087EE93E0215080409040E1F700C0000082
:100DF00089E30E94850F0E943810CF9108958338AF
:100E0000A1F40E94CB2B80FDF8CF83E50E947D0FDB
:100E10000E9438102FEF81EE94E0215080409040E6
:100E2000E1F700C0000083E5E4CF8438A1F40E941C
:100E3000CB2B82FDE2CF87E40E947D0F0E94381009
:100E40002FEF81EE94E0215080409040E1F700C008
:100E5000000087E4CECF8CEF8C0F813A90F46C2F9A
:100E600080910001909101010E942F2C882329F08C
:100E70008C2F0E94850F0E9438108C2F0E947D0FAE
:100E8000BACF80E28C0F883048F4C77081E001C08F
:100E9000880FCA95EAF70E94DF0FADCFEBE5EC0FA4
:100EA000E33040F4F0E0E75AFE4F808190E00E948A
:100EB000F12BA3CFE8E5EC0FE73150F4F0E0EE0FB3
:100EC000FF1FE55DFE4F808191810E94072C95CF29
:100ED000C03F08F492CF8C2F0E94C0160E94AB171F
:100EE0008CCF882309F455C0823879F40E94CB2B2B
:100EF00081FF4FC089E30E947D0F0E94381089E373
:100F00000E94850F0E9438100895833859F40E947A
:100F1000CB2B80FF3EC083E50E947D0F0E943810DE
:100F200083E5EECF843859F40E94CB2B82FF31C089
:100F300087E40E947D0F0E94381087E4E1CF9CEF88
:100F4000980F913AE8F290E2980F983050F4877039
:100F500091E001C0990F8A95EAF7892F0E94E50F69
:100F6000D1CF9BE5980F933028F490E080E00E9469
:100F7000F12B089598E5980F973128F490E080E0E0
:100F80000E94072C0895803F20F00E9428170E949D
:100F9000AB1708951F93CF93DF93182FEB010E9497
:100FA000E006209739F4812F0E947107DF91CF91DD
:100FB0001F9108958FE99FE00197F1F700C00000AD
:100FC0002197EFCF6091180370911903893321F0B5
:100FD00060911603709117030E94CA070895882331
:100FE00021F00E94DF0F0E9438100895882321F01D
:100FF0000E94E50F0E9438100895882321F00E9476
:10100000EF0F0E9438100895882321F00E94F50FF9
:101010000E943810089590E080E00E94F12B90E04B
:1010200080E00E94072C0E94FC0F0E9438100E9452
:10103000C7170E94AB1708950E948D0F0E940B08DE
:1010400008950E94EC0F0E941C08089592959F70CD
:10105000963091F058F4925F9F70923058F4803F30
:1010600019F030F4883E30F481E008959A5FF4CFAF
:10107000843FD1F380E00895883EB0F3813FD1F7FB
:10108000F3CFFC0183819481892B29F080819181A8
:1010900089238F3F11F480E00895808191810E941F
:1010A000560C0E9426080895B0E0A0E0EAE5F8E0BA
:1010B0000C944E356C01EB01FC0112810581029507
:1010C0000F700E94D50FE82E8823B9F0E12E11236E
:1010D000A1F08D2F807F803421F080E28C0F88304A
:1010E000D0F08091E10282FF16C082E00E94B2102F
:1010F0000E94D50F91E0E82EE926BD2EB2942FE094
:10110000B222FBE0FB1508F47CC0EB2DF0E0EA51C5
:10111000FA4C0C943835E12CF0CF2D2F2F70F22E95
:101120008D2F807F19F0F29490EFF922112399F01E
:10113000FF2059F080E28C0F883010F0C11107C0F9
:101140008F2D0E94DF0F0E9438108C2F52C08F2DE0
:101150000E94EF0FF8CF8C2F0E947107FF2009F437
:1011600050C080E28C0F883010F0C11104C08F2D68
:101170000E94E50F03C08F2D0E94F50F0E943810CA
:1011800040C03D2F3F70F32E8D2F807F803219F0AD
:10119000F29480EFF822CC23F1F0C13009F49FC023
:1011A000112309F4A8C0002309F474C020E0F6015B
:1011B000408151816281738184810E943805B6012A
:1011C0000E9440218111C1CFF601858180FFBDCFF2
:1011D0008F7085835FC08091E10282FD3CC0112346
:1011E00059F0FF2029F08F2D0E94DF0F0E94381048
:1011F00080E00E94E00605C080E00E947107F110C7
:10120000B6CFEB2DE850FF0B349720F40E94CB2B88
:101210000E944606CE010E9426088111A3C11092A9
:10122000D3011092D201EE2089F00E94B70F80FD09
:101230000DC0F60112820E94B10F0E94640BC6011C
:101240000E94EB0A0E94B10F0E94700BCDB7DEB76F
:10125000E9E00C946A351123F9F0011106C00E94EF
:10126000FF0F8F290E94EF07CCCF013031F40E948D
:10127000FF0F8F290E941310C4CF80911403823076
:1012800070F38013ECCF0E942A100E94940F8F29D4
:101290000E9406108F2DE6CF011103C00E942A1074
:1012A00015C0809114030130A9F4823008F4A9CF4D
:1012B0000E94DC0F8F2109F4A4CF0E942A100E9403
:1012C000940F9F2D909589230E9406108F2D0E94C8
:1012D000F60797CF823010F30813E0CF92CF8091BA
:1012E0001A03112321F0801708F48BCFD3CF0817EE
:1012F00008F087CFEBCF002349F38091180390913A
:101300001903C93321F080911603909117030E94AD
:1013100071068C2F0E94710774CF8D2F869586954C
:10132000837061F0813009F06CCFCE0193701111A0
:1013300002C090E080E00E94072C63CFCE01937042
:10134000111102C090E080E00E94F12B5ACF8C2F47
:10135000112329F00E94C0160E94AB1752CF0E94A1
:101360002817FACF8D2F837081F511114ACF4C2F9A
:10137000429546954770440F440F8C2F8F70042E72
:1013800001C0880F0A94EAF72C2F2071C4FF07C010
:101390002FE030E001C0220F4A95EAF720959D2FFB
:1013A000969596959370822B923049F058F491302F
:1013B00019F00E943E0B25CF0E94380B22CF0E94CD
:1013C000440B1FCF0E94350B1CCF8695112311F0C3
:1013D0008D2F8170882309F414CF4C2F42954695A8
:1013E0004770440F440F8C2F8F70042E01C0880F5C
:1013F0000A94EAF72C2F2071C4FF07C02FE030E0D9
:1014000001C0220F4A95EAF720959D2F9695969553
:101410009370822B923049F058F4913019F00E9469
:101420008F0BEFCE0E94890BECCE0E94950BE9CE7C
:101430000E94500BE6CEFD2FFF70FF2E112329F0E6
:101440008F2F0E94640B8C2F0DCF8C2F0E94F607DC
:101450008F2D0E94700BD5CEC23F51F160F4C03F7A
:10146000B9F0C13F81F0112309F477C001116DCEAD
:101470008D2F8F7121C0C33F11F1C43FA1F780911F
:10148000E10282FD26C08D2F8F71112311F314C04C
:1014900080911A03112341F0081708F0B2CE8D2F66
:1014A0008F710E947D0BADCE801708F4AACEF7CFC6
:1014B0008D2F8F711111CDCF0E94640BA2CE1123FD
:1014C00029F08D2F8F710E945B0B9BCE0E94570BD2
:1014D00098CE80911403823048F11123D9F00E94F4
:1014E000B70F843041F40E94A8108D2F8F710E9495
:1014F000700BE12C86CE809114030817D0F72D2FA6
:101500002F71F22E822F0E94640B63E08F2D0E94B8
:101510008A10EFCF081730F00E94A81064E08D2FDA
:101520008F71F5CF81E00E94B210E3CF112359F003
:101530003D2F3F71F32E832F0E94640B63E08F2DAC
:101540000E948A105ECE81E00E94B210023008F440
:1015500058CE82E00E94B21054CE0111CECE8D2F13
:101560008F7177CF112319F0011159CE5CCE011183
:1015700056CE20E0F60140815181628173818481E1
:101580000E943805B6010E944B21882309F447CEFA
:101590008091D2019091D301029709F040CE8C2F17
:1015A0000E94E2073CCE0F931F93CF93DF93EC0191
:1015B000688179818A810E94610C8C010E949B0B59
:1015C0000E94340BB801CE010E945408DF91CF91E4
:1015D0001F910F910895CF93DF93EC018B819C8134
:1015E000892B29F08881998189238F3F51F4DF91DC
:1015F000CF910895CE010E94D30ACE010E947005BA
:10160000F6CFCE010E9424068111F4CF0E94D50F9F
:10161000882369F38A81882351F38091E10282FF54
:10162000E6CF82E00E94B210E2CFA5E0B0E0EBE1AD
:10163000FBE00C9455352596E2E00C947135A6E05C
:10164000B0E0E5E2FBE00C9455352696E2E00C9420
:10165000713508950E94290B08950E942A0B8093EA
:10166000F0010E940B08089508950E942D0B089523
:101670009091F001892B0E942D0B08959091F0011B
:1016800089230E942D0B08959091F00189270E94D3
:101690002D0B08950E94290B08950E944A0B08956E
:1016A0000E944D0B8093EF010E940B08089580E08B
:1016B0000E94500B089591E001C0990F8A95EAF7B6
:1016C000892F0E94500B089521E030E001C0220FC5
:1016D0008A95EAF78091EF01822B0E94500B0895C2
:1016E00021E030E001C0220F8A95EAF72095809131
:1016F000EF0182230E94500B089521E030E001C0E9
:10170000220F8A95EAF78091EF0182270E94500B01
:1017100008959091EF01892B0E94500B08959091AC
:10172000EF0189230E94500B08959091EF018927C2
:101730000E94500B08950895262F277091E001C054
:10174000990F2A95EAF723E0769567952A95E1F7B0
:10175000FB01EE0FFF1FE60FF71FE40FF51F50E030
:1017600040E0682F70E08191DF0111979B01042E0A
:1017700002C0369527950A94E2F721702195282713
:10178000292328272C934F5F5F4F4330510559F78A
:101790000895A82FA77023E0969587952A95E1F7DD
:1017A000FC01EE0FFF1FE80FF91FE60FF71F50E0D7
:1017B00040E080E0219130E00A2E02C03695279566
:1017C0000A94E2F721703327042E01C0220F0A94F5
:1017D000EAF7822B4F5F5F4F4330510559F7089569
:1017E000282F862F903F79F0953070F42C3058F4E4
:1017F000622F70E02CE0929F600D711D112447ED67
:1018000051E00E949C0B08959C5F9230E0F7622F9C
:1018100070E044ED51E0F5CF903FC9F0953080F491
:101820008C30A8F4282F30E067ED71E0A901ECE0DE
:101830009E9F400D511D1124CA010E94C90B08959D
:101840009C5F923020F464ED71E090E0F6CF80E090
:101850000895CF92DF92FF920F931F93CF93DF9360
:101860006C010091EF018091F001082BC7E0D0E0FE
:1018700010E0FC2EC8010C2E02C0959587950A94A5
:10188000E2F780FD0CC02197A0F7F12C8F2DDF919E
:10189000CF911F910F91FF90DF90CF900895B601E7
:1018A0008C2F0E949E13019771F3F0CFCF93DF939B
:1018B000EC010E94290CBE010E949E13DF91CF9182
:1018C00008951F93CF93DF93EB019091D10199235A
:1018D00039F0CB010E94560CDF91CF911F910895F2
:1018E000882369F0CB010E94290C182F682FCE01A4
:1018F0000E94F00BBE01812F0E949E13EDCFCB0101
:101900000E940C0C182FF6CF1F93CF93DF93C0913A
:10191000F10116E08091F2018C1304C0DF91CF91A8
:101920001F910895D0E01C9FF0011D9FF00D112420
:10193000ED50FE4F40815181628173818481958198
:101940000E941F0B2196C770E5CF40912302509152
:1019500024026091250270912602809127029091C5
:1019600028020E941F0B08952091F1019091F2012D
:1019700056E0291302C080E0089530E0529FF00144
:10198000539FF00D1124ED50FE4F7181761306C068
:101990007081781303C07281741304C02F5F3F4FAE
:1019A0002770E7CF81E008951F93CF93DF93809155
:1019B0002802807F09F049C080912502882309F41C
:1019C00044C08091F101C091F201609123027091B5
:1019D0002402A0912602B0912702D62FD72316E029
:1019E000C81799F190E0109711F0DF3F19F40196B4
:1019F0008770F6CF189F9001199F300D1124F901BF
:101A0000ED50FE4F41814713F2CF40814613EFCF97
:101A100042814111ECCF438154814A1B5B0B483C0E
:101A2000510528F7809128028F70806180932802E9
:101A3000F901E850FE4F80818F708061808383E2DE
:101A400092E00E94EB0A0E94840CDF91CF911F91DB
:101A50000895A1E1B0E0EFE2FDE00C9449358C017E
:101A600085E0F801DE011D9601900D928A95E1F75F
:101A7000D8017C9011966C9011971296EC90129769
:101A80001396CD90DC9060E083E292E00E946405C2
:101A90004C0183E2A82E82E0B82E4091260250919C
:101AA00027024115510509F47AC190912302209132
:101AB0002402892F82238F3F09F471C1F0902502FF
:101AC000F601E41BF50BFF2009F417C180912802F1
:101AD000382F307FE83CF10508F0CBC0D8011196D3
:101AE0004C911197311182C0FE2C421317C02C91DA
:101AF000291314C0E11012C08F70806180932802F6
:101B00000E94A50CC5010E94EB0A80912802F801F1
:101B100085838F2D6196EEE00C946535C114D10458
:101B200029F0872D86218F3F09F055C180E080FF85
:101B30001CC04E2D662D872D0E94B40C8823A9F061
:101B400063E272E0C4010E943C21882371F083E2C9
:101B500092E00E94EB0A86E0E3E2F2E0DF011D92F0
:101B60008A95E9F70E94A50C3FC0C114D10429F061
:101B7000872D86218F3F09F02BC180E0B82FB170EF
:101B8000CB2E80FF29C04E2D662D872D0E94B40CD0
:101B9000D82E811121C07D866E868D859E850E94FE
:101BA000560C292F22952F70223050F0243078F4D3
:101BB0009F7051F0F8019581907F31F4FD2CA9CFF1
:101BC0009F7011F08823D1F3805E8830B8F3C8018C
:101BD0000E94EB0ADC2CF2CFEE2009F49ACF809120
:101BE0002802816080932802F12C93CF421315C004
:101BF0002C91291312C0E11010C015968C93C801C6
:101C00000E94EB0A86E0F801A3E2B2E001900D9297
:101C10008A95E1F70E94A50C7CCFC8010E9441087B
:101C2000882319F1EE2009F180912802803270F0AA
:101C3000209123023091240238872F831986DB8676
:101C4000CA868C87CE0107960E94EB0A86E0F801CF
:101C5000A3E2B2E001900D928A95E1F70E94D40CC4
:101C60000E94A50CFF24F39454CFC8010E94EB0AF4
:101C7000F9CF311113C07C2DD98AC88A472D562D32
:101C80006E2D89890E94150B83E292E00E94EB0A77
:101C900086E0F50111928A95E9F764CFD801119693
:101CA0003C911197321310C02C9129130DC0E110F3
:101CB0000BC015968C93C8010E94EB0A86E0F501D3
:101CC00011928A95E9F725CFC8010E94410888231F
:101CD00061F2EE2051F280912802803208F4B6CFF2
:101CE00020912302309124023A8329831B82DD82D2
:101CF000CC828E83CE010196A7CFE83CF10508F097
:101D00003FC0FE2CEE2009F4B0CFD80111968C9183
:101D10001197821327C08C91891324C063E272E06B
:101D2000C4010E944521811114C09091280290FDA8
:101D300010C0907F71F080912802F8018583903F58
:101D400009F45DCF982F907F905F8F70892B8583EA
:101D500056CF86E0F801A3E2B2E001900D928A9599
:101D6000E1F7D7CEC8010E94410881116FCF809161
:101D70002802816080932802C8010E94EB0AC9CE24
:101D80007C2DD98AC88A472D562D6E2D89890E94AF
:101D9000150B86E0D5011D928A95E9F73BCFEE2021
:101DA00009F463CFC8010E944108F82E882309F482
:101DB0005CCF86E0F801A3E2B2E001900D928A9533
:101DC000E1F783E292E00E94DA060E94D40C22CF6F
:101DD00081E08E25D3CE81E08E25A9CEACE0B0E0A7
:101DE000E4EFFEE00C9454354F83588769877A8777
:101DF0008B879C87CE0107960E94290D882369F066
:101E00008A859B85892B39F04F815885842F8523BE
:101E10008F3F09F06BC016E05FC086E0FE01379689
:101E2000DE01119601900D928A95E1F78A859B85D6
:101E3000892B89F38F81988589238F3F61F32091C6
:101E4000F20130E0C9010196877099274091F101B4
:101E50004817190671F40E9421081092F20110929D
:101E6000F10186E0E3E2F2E0DF011D928A95E9F7F5
:101E7000D2CF96E0929FD001939FB00D1124AD5028
:101E8000BE4FFE01319601900D929A95E1F7809335
:101E9000F2010E94840CBFCF819FC00111248D509C
:101EA0009E4F0E94290D8823E9F0E091F1011E9FC9
:101EB000F0011124ED50FE4F408151816281738108
:101EC000848195810E941F0B8091F10190E0019621
:101ED000877099278093F1018091F1019091F2012F
:101EE0008913DACF2C96E3E00C94703569857A85F6
:101EF0008B859C850E941F0B8ECF682F80910001DF
:101F0000909101010E94652C0895682F8091000135
:101F1000909101010E94682C089580910001909198
:101F200001010E946B2C08958091360208958091E2
:101F3000FA029091FB02892B89F00E94222D2091B8
:101F4000340230913502AC01421B530B81E02091E9
:101F5000FA023091FB024217530708F480E08170C7
:101F60000895809133028595859585950895809192
:101F70003302877008950E94222D20913102309102
:101F80003202821B930B2091FA023091FB028217DE
:101F9000930748F08091330282FB882780F991E013
:101FA00089278170089580E0FCCF9091330297706B
:101FB00081E009F480E008958091410208959091B4
:101FC0004102892B809341020895809590914102AE
:101FD00098239093410208951092410208959091A0
:101FE0004002892B80934002089580959091400291
:101FF0009823909340020895109240020895809192
:102000003702089508950E940210089590913602B3
:10201000981721F0809336020E94031008950895C6
:102020000E940F100895CF93C82F8091E10282FF84
:102030000FC0809137028C1759F00E94222D909387
:10204000350280933402C09337028C2F0E94101007
:10205000CF91089580913702882349F0109237027A
:10206000109235021092340280E00E941010089500
:10207000CF93DF93E0910001F09101018091410243
:102080008083E0910001F0910101808190914002F4
:10209000892B8083809137028823E9F08091FA02AE
:1020A0009091FB02892B29F00E94970F81110E94C9
:1020B0002A10E0910001F091010180819091370296
:1020C000892B808380910001909101010E941D2C39
:1020D00081110E942A10C0910001D091010148E0B5
:1020E00050E069E272E0CE010E948535892B59F0FB
:1020F00088E0FE01A9E2B2E001900D928A95E1F735
:10210000CE010E94D82BDF91CF91089508950E94AF
:10211000861008959091E10292FF17C098E0899F80
:1021200090011124622B609333020E94640B0E9481
:10213000222D909332028093310280913302859553
:10214000859585950E94871008950E94640B0895D7
:1021500010923302109232021092310280E00E94FB
:1021600087100895909133028095892380933302DC
:10217000282F277091F4282F082E000C330B92176C
:10218000130659F09091E10292FF07C0859585955D
:1021900085950E94700B0E94A81008959091E1020D
:1021A00092FB222720F9281769F080FB92F990937F
:1021B000E1028091E0029091E1020E94201182E010
:1021C0000E94B21008958091E10282FB882780F975
:1021D00091E089270E94CE10089581E00E94CE10E0
:1021E000089580E00E94CE1008956FEF7FEF90E099
:1021F00080E00E94CE35089590E080E00E94AA35EC
:10220000883E9E4F19F40E94E518089580E00895D5
:1022100082E090E00E94A235089583E090E00E9461
:10222000A2350895CF9384E090E00E94A235C82F94
:1022300082E290E00E94A235982F8C2FCF910895D2
:10224000CF93C92F682F84E090E00E94B0356C2FA7
:1022500082E290E00E94B035CF910895AB01BC01BD
:102260008FE090E00E94C2350895AB01BC0183E18C
:1022700090E00E94C235089560E070E0CB010E94BA
:102280003511089560E070E0CB010E942E110E948C
:102290003C11089568EE7EEF90E080E00E94CE351C
:1022A00060E082E090E00E94B03560E083E090E082
:1022B0000E94B0351092F00160E084E090E00E944E
:1022C000B03564E082E290E00E94B03560E085E0E5
:1022D00090E00E94B03560E086E090E00E94B0356A
:1022E0006FEF87E090E00E94B03540E050E0BA0127
:1022F00088E090E00E94C23560E08DE090E00E94AE
:10230000B03540E050E0BA0188E190E00E94C2356B
:1023100060E087E190E00E94B03540E050E0BA0113
:102320008CE190E00E94C23570E060E080E290E0D5
:102330000E94CE3540E050E0BA0188E190E00E9472
:10234000C23580E00E94FE180E942D190E944211A1
:1023500008950E944A110895682F8EE090E00E942F
:10236000B03508950E942E2D609356027093570247
:1023700080935802909359026093520270935302D3
:10238000809354029093550208950E942E2D6093DD
:1023900056027093570280935802909359026093AB
:1023A0004E0270934F028093500290935102089511
:1023B000089508950E94D911089508950E94DD118D
:1023C000089588E894E10E94C12B0E948C1A0E9413
:1023D0004D200E94D8110E94DA11089581E00895DD
:1023E0000E94EE110895089508950E94F3110E942D
:1023F000F41108950E94A4140E94450608950E94B5
:10240000192D0E943D190E947C150E94FA1180E04E
:102410000E94C6210E9497280E94DE110895AAE01A
:10242000B0E0E5E1F2E10C944A350E94921524E413
:10243000822E22E0922E640110E0F601E190F190EC
:102440006F01812F0E94C7141F5F153009F44AC025
:10245000E816F90691F380915A0281FD0E94D0148A
:102460000E94F011782E10E0812F0E94C7147C0189
:10247000F401A190B1904F018A159B0561F1A82646
:10248000BF2400E0CC24C394D12CC5018C219D2114
:10249000892BC1F07720B1F00E831F8321E0C701A3
:1024A0008C219D21892B09F420E028870E94222D70
:1024B0008160782F9A8789874E815F8168858A85B8
:1024C0000E947B060F5FCC0CDD1C0C30F1F6F40192
:1024D0003297F182E0821F5F153031F60E94B2110F
:1024E00011E023C0E816F90609F0B5CF0E94222DAD
:1024F0008C01809142029091430208171907A1F0C4
:102500008FEF89838A831B820E94222D8160782F1E
:102510009D838C8349815A816B818D810E947B06CA
:10252000109343020093420210E00E9427270E946A
:102530000829082F81110E94C5110E949F231111A3
:1025400001C001110E9465220E94E9170E945806ED
:102550002A96EDE00C946635CF93DF930E94A31387
:10256000EC01811521E5920708F042C0811530E5A4
:10257000930708F09FC0883E910530F5803E910595
:1025800008F094C0883A910588F4853A910508F0DE
:1025900086C08130910509F489C0009709F486C08E
:1025A000049708F083C0D0E0C0E080C08F3B910565
:1025B000D0F7C85AD0E0CC0FDD1FC45ADE4F0990C7
:1025C000D881C02DD46472C0811540E2940750F4C4
:1025D000C11581E0D80708F069C0C03FD10518F3E4
:1025E000D06564C081159044F0F2DF70D06A5EC09F
:1025F000811535E5930718F5811544E5940708F032
:1026000086C0C11583E5D80708F06DC0C11522E565
:10261000D20708F463C0CE018370992721E030E02F
:1026200002C0220F331F8A95E2F7C695C69580E255
:10263000C89FE0011124C22BD32BDC6837C0811561
:1026400039E59307A8F4811548E5940708F064C0BC
:10265000C11586E5D80708F0A6CF8C2F0E94451437
:10266000C82FD0E0DC2FCC27CC27DF71D0621EC072
:1026700081152AE5920708F454C0905681159042BE
:1026800008F091CF8D2F8F710E94451490E0982F04
:10269000882788279F719C012C2BE901E7CFC55A19
:1026A000D0E0C657DE4FC881D0E0D064CE01DF91C4
:1026B000CF910895282F26952695237040E2249FD8
:1026C000900111248370C1E0D0E002C0CC0FDD1F67
:1026D0008A95E2F7C22BD32BDD68E8CFDC2FCC271D
:1026E000C16FD06AE3CFCE018370992721E030E03B
:1026F00002C0220F331F8A95E2F7C695C69540E2C5
:10270000C49FE0011124C22BD32BDA68CFCFD82F7E
:10271000CC27C46FD06ACACFD82FCC27C06FD06A5D
:10272000C5CF8F700E94451434E0D695C7953A9571
:10273000E1F7CF709C2FEC01D069B8CF0E94A41DA7
:102740000E94AC12089582389105B9F1B0F481333A
:10275000910509F47DC048F48932910509F46DC0F2
:102760008A32910509F47BC008958533910509F4F7
:102770005FC08933910509F10895833E9105D9F130
:1027800038F4803E910529F1823E910579F1089552
:10279000863E9105D9F1873E910509F43EC0843EFD
:1027A000910541F52091E10221FF24C08091E002D2
:1027B00084FD19C087EE90E008952091E002237017
:1027C00009F05AC02091E10223FF14C089E290E091
:1027D00008952091E00220FD38C03091E10230FFE1
:1027E00009C024FF43C090E080E008952091E002FA
:1027F00022FDF7CF08952091E00222FD3AC03091EA
:10280000E10230FD39C024FFF5CFEDCF2091E00289
:1028100023FFF0CF24FDE7CFCDCF2091E00223FDB1
:102820002EC03091E10231FFEECF84EE90E00895AA
:102830002091E00225FFDECFC9CF2091E00225FDE7
:1028400021C02091E10223FFD5CF89E390E0D2CFD0
:102850002091E00226FFCECF8AE290E008952091F9
:10286000E00226FFC7CF81E390E0089583EE90E079
:10287000089582EE90E0089580EE90E0089586EE4F
:1028800090E0089585E390E008959091E00292FF32
:1028900006C0282F28712830F9F4877F846093FFC1
:1028A00006C0282F28712831F1F4877E8461209199
:1028B000E10220FF06C0382F38713830D9F4877F05
:1028C000816021FF06C0282F28712831D1F4877E2E
:1028D000816194FD877E0895282F24712430F9F6B4
:1028E0008B7F8860DCCF282F2471243101F78B7E09
:1028F0008861DDCF382F3171313019F78E7F8860D4
:10290000E0CF282F2171213121F78E7E8861E1CF20
:1029100080E008950E94F51008950E9492158FE3BB
:102920009CE90197F1F700C000000E94921580E039
:102930000E94C71480FF04C00E948A140E946D2D5B
:1029400008950E948D1408950E94FC10811102C008
:102950000E94A9110E94081180935A020E9412112C
:102960009093E1028093E0020E94A1140E940D1155
:102970000E94350B8091EF010E944D0B0895089540
:102980000E94BF14089508950E94C3140895E82F6B
:10299000F0E0EE0FFF1FE451FD4F8081918108951B
:1029A000089580EA8A95F1F7089500C008950E947D
:1029B000D1140895F894E82FE295EF70F0E031A17A
:1029C000282F2F7081E090E001C0880F2A95EAF748
:1029D000982F9095932391A392A1892B82A3789409
:1029E0000895CF93DF93C9E9D1E089918F3F11F02A
:1029F0000E94DA1481E0CE39D807B9F7CDE8D1E0EA
:102A000089918F3F11F00E94DA1481E0C939D8070B
:102A1000B9F7DF91CF910895AF92BF92DF92EF9215
:102A2000FF920F931F93CF93DF938C01D62EC62F67
:102A3000D0E0CE0187569E4F7C01FC0120812F3FC4
:102A400009F44DC0F894E22FE295EF70F0E031A167
:102A50002F7081E090E001C0880F2A95EAF7932F4C
:102A6000982B91A392A18095892382A378940E94A8
:102A7000D514EDE8F1E049E951E021E030E0B12C76
:102A8000A12C61916F3FA9F1A62FA295AF70B0E084
:102A900090968C9190E06F7002C0959587956A959D
:102AA000E2F780FD26C0C901A82AB92A220F331FE8
:102AB0004E175F0731F7F70180818F3F11F00E94B9
:102AC000DA1461E0A114B10409F460E08D2D0E94D4
:102AD000D714CC0FDD1FC00FD11FB982A882DF91A0
:102AE000CF911F910F91FF90EF90DF90BF90AF902B
:102AF000089590E080E0D8CF0E94F1148AE0ECEED7
:102B0000F2E0DF01982F1D929A95E9F7E2EEF2E0EC
:102B1000DF011D928A95E9F785E00E94CD150E949C
:102B2000A3050895AAE0B0E0E8E9F5E10C94523578
:102B30008E010F5F1F4F8AE0F80111928A95E9F725
:102B4000F12C6F2DC8010E940C15F394F5E0FF12D3
:102B5000F8CF4AE050E0B80182EE92E00E9485355D
:102B600021E0009709F420E0892B41F08AE0F80188
:102B7000A2EEB2E001900D928A95E1F745E06CEE8D
:102B800072E082EE92E00E94CE15182F0E94A605F8
:102B9000812F2A96E5E00C946E350895CF92DF924E
:102BA000EF92FF921F93CF93DF936C017B01C42FB1
:102BB000222349F081E080935D020E94222D9093B0
:102BC0005C0280935B0210915D0211110AC010E05B
:102BD000812FDF91CF911F91FF90EF90DF90CF90E9
:102BE000089580915B0290915C020E943A2D0597B6
:102BF00070F3D0E0CC0FDD1FAE01B601C7010E941B
:102C00008535892B41F0AE01B601C7010E9492358E
:102C100010925D02DDCF10E0FBCF0E94692F0E9471
:102C2000FF110E94762F08950E947B2F0E940F12A1
:102C30000E94952F08950E94BB2C0E944F2F0E9446
:102C4000E1110E940D160E9414160E94F511FBCF8F
:102C500080916402609100037091010380FF16C0AF
:102C600020910701269FC001279F900D1124BC01D0
:102C700076956795769567956038710508F043C03D
:102C80006115710509F441C0862F089581FF0BC0BD
:102C900020910701269FC001279F900D1124BC01A0
:102CA00076956795E9CF82FF09C0809107019B0166
:102CB000829FB001839F700D1124DECF20916302AB
:102CC0002223D1F29091060180910701482F50E014
:102CD000291748F0CB01849FB001859F700D949F08
:102CE000700D1124C9CF289F90011124269FA001A7
:102CF000279F500D369F500D1124692F70E0CA0197
:102D00000E941035B9CF8FE7089581E00895809132
:102D1000640280FF0CC06091030170E075956795B7
:102D2000759567956115710549F1862F089581FFA5
:102D300006C06091030170E075956795F3CF6091CF
:102D4000030182FD0BC0909162029923A1F0609172
:102D5000020180910301961738F0682F70E0603807
:102D6000710500F38FE70895899FC001112470E079
:102D70000E942435F4CF61E070E0D7CF81E0089560
:102D8000803F31F40E94281681958093680208954F
:102D9000813F19F40E942816F8CF823F31F40E9437
:102DA00028168195809367020895833F19F40E9445
:102DB0002816F8CF893F29F40E948716809369026C
:102DC00008958A3F21F40E9487168195F7CF8B3FA3
:102DD00031F40E948716819580936A0208958C3F92
:102DE00019F40E948716F8CF843F31F4809166026F
:102DF0008160809366020895853F21F48091660288
:102E00008260F7CF863F21F4809166028460F1CF23
:102E1000873F21F4809166028860EBCF883F21F4E0
:102E2000809166028061E5CF8D3F31F4809164022C
:102E300081608093640208958E3F21F48091640242
:102E40008260F7CF8F3FB9F7809164028460F1CF41
:102E500090916702803F59F48091680287FF0DC00E
:102E60001092680291110BC01092630208C0813F5A
:102E700081F48091680218169CF3992381F0809167
:102E8000690290916A02892B09F064C01092620273
:102E90000895823F49F497FFF0CF10926702809126
:102EA00068028111ECCFE0CF833F19F41916ACF31F
:102EB000E4CF20916902893F29F41216F4F61092AA
:102EC0006902DBCF8A3F19F427FFD7CFF8CF2091D3
:102ED0006A028B3F29F427FFD0CF10926A02CDCF30
:102EE0008C3F19F41216CCF3C8CF843F31F4809193
:102EF00066028E7F80936602C0CF853F21F4809169
:102F000066028D7FF7CF863F21F4809166028B7F2A
:102F1000F1CF873F21F480916602877FEBCF883F16
:102F200021F4809166028F7EE5CF8D3F31F4809150
:102F300064028E7F80936402A0CF8E3F21F4809143
:102F400064028D7FF7CF8F3F09F097CF80916402A5
:102F50008B7FF0CF08950E94222D9C0190916702F3
:102F600080916802982B21F03093610220936002D7
:102F70009091690280916A02982B21F030935F0250
:102F800020935E0285E692E00E94E32B089586E09E
:102F9000E5E6F2E0DF011D928A95E9F710926302FF
:102FA00010926202109264020895FC0182818111E4
:102FB0000EC0838181110BC08481811108C091E012
:102FC0008581811101C090E0892F8170089581E091
:102FD000FCCFA6E0B0E0EFEEF7E10C94543586E0CC
:102FE000E5E6F2E0DE01119601900D928A95E1F797
:102FF00010926702109268021092690210926A029F
:103000008B819C81892B89F0809160029091610273
:103010000E943A2DAC01909163029923C9F18091ED
:1030200008018417150608F440C08D819E81892B04
:1030300091F080915E0290915F020E943A2DAC0166
:1030400090916202992309F471C080910401841760
:10305000150608F479C0BE016F5F7F4F85E692E0E8
:103060000E94722C811105C085E692E00E94D5175E
:1030700081110E94AB1786E0FE013196A5E6B2E011
:1030800001900D928A95E1F72696E3E00C94703555
:10309000209109018AE0289F900111242417350707
:1030A00020F69F5F9093630202C09F3FD1F71B8180
:1030B000112359F00E9428169FEF11160CF491E08D
:1030C000899F802D1124809367021C81112359F060
:1030D0000E9428169FEF11160CF491E0899F802D15
:1030E00011248093680230916702332309F49DCF45
:1030F00020916802222309F498CF45EB3403C001E4
:103100001124992359F09093670245EB2403900111
:103110001124332339F03093680287CF81E0809304
:103120006702F3CF81E0809368027FCF2091050191
:103130008AE0289F900111242417350708F08BCFCF
:103140009F5F9093620202C09F3FD1F71D811123C0
:1031500059F00E9487169FEF11160CF491E0899F99
:10316000802D1124809369021E81112359F00E9441
:1031700087169FEF11160CF491E0899F802D112482
:1031800080936A0230916902332309F464CF20915D
:103190006A02222309F45FCF45EB3403C0011124F6
:1031A000992359F09093690245EB2403900111246F
:1031B000332339F030936A024ECF81E08093690265
:1031C000F3CF81E080936A0246CF83E290E00E94D1
:1031D000A2358B3E89F484E290E00E94A2358E37BE
:1031E00059F485E290E00E94A23591E0803309F025
:1031F00090E0892F8170089580E0FCCFCF93C82F95
:103200006FEF81116BEE83E290E00E94B0356FEFBB
:10321000C1116EE784E290E00E94B0356FEFC111FA
:1032200060E385E290E00E94B035CF910895089563
:1032300086E290E00E94A235682F70E090E080E086
:1032400008950895CF93C62F0E9421196C2F86E20E
:1032500090E00E94B035CF91089580E00E94FE1862
:1032600060E070E0CB010E9422190E94D11C0E94F4
:103270001D1E81E00E94FE1808950E9417190E94E9
:1032800018190E9421190E94E518811102C00E949C
:103290002D190895CF93FB01C281CC2309F19C0124
:1032A00022513F452031310520F582510E942D1ECB
:1032B000C0E08C2FCF91089581E00E94640B43E021
:1032C00062E081E00E949905F3CF81E00E94700BDB
:1032D00043E062E081E00E949905EBCF82E0F6CF07
:1032E0008031FFE59F0789F381319F45B9F3C1E044
:1032F000E0CF8031EFE59E07F9F281319F45C9F6B5
:1033000082E0DBCF2FEFFC0120830895EF92FF9244
:103310000F931F93CF93DF93EC01062F88812091A9
:103320006D0230916E02232B79F08E3F09F057C069
:103330008981833020F08550833008F050C0602FA1
:10334000CE010E948D1A4BC08C3009F4A0C0D0F47D
:10335000843009F483C060F4823009F449C008F075
:1033600070C08130C9F1602FCE010E94821937C030
:10337000863009F489C008F47CC08A30A0F78FEF4A
:1033800088832DC0803109F49FC0D8F48E3009F4B1
:103390008AC008F480C080910A0190910B01892BAA
:1033A000F1F06B8170E06D317105C8F489819A810B
:1033B000AE014C5F5F4F9827892798270E94F81D20
:1033C0000EC0823109F486C008F481C0833109F44B
:1033D00092C08E3F41F6B3CF198289E08A83602F75
:1033E000CE010E94222ECDB7DEB7E6E00C946D35FB
:1033F0008981823071F0833079F0813009F0B3CF68
:103400000E942E2D0E943E356A837B838C839D8390
:10341000E6CF0E941819F6CF80910A0190910B0116
:10342000892BE9F27E0110E0812F0E94C714F70179
:10343000928383831F5FF2E0EF0EF11C1530A1F73A
:10344000CECF8981823009F08ECF6A817B818C81D9
:103450009D810E943E350E942219C1CF4B816A8115
:1034600089810E94171C9827892798279D838C8320
:10347000B6CF2C813D813227232732274B816A81A9
:1034800089810E94391CABCF0E94D11CA8CF0E9419
:10349000CE1D8983A4CF0E94D01D98278927982705
:1034A0009A8389839CCF6B8170E06D31710508F040
:1034B00096CF89819A81AE014C5F5F4F982789270B
:1034C00098270E94D31D8BCF0E941D1E88CF0E947B
:1034D000051CDFCF6B8170E06D31710508F07FCF87
:1034E00089819A81AE014C5F5F4F98278927982781
:1034F0000E94521D74CF6B8170E06D31710508F030
:103500006ECF89819A81AE014C5F5F4F98278927E2
:1035100098270E94761D63CF0895A8E0B0E0E3E904
:10352000FAE10C9451358C01603269F5DC01119699
:10353000EC911197EE3038F5F0E0EE50FA4C0C9427
:10354000383588E0E3E2F1E0DE01119601900D925A
:103550008A95E1F780E2F80111928A95E9F785E012
:10356000D8018C9311961C92119712961C92129767
:1035700013961C92139788E0FE01319614960190E1
:103580000D928A95E1F72896E6E00C946D3584ED6E
:10359000F801808381E0818312821382F4CF139635
:1035A0008C911397682F70E0762F662712968C9176
:1035B000860F972F911D092E000CAA0BBB0B25E03F
:1035C000880F991FAA1FBB1F2A95D1F7AC01BD0117
:1035D000405E5F4F6F4F7F4F481759076A077B0761
:1035E00090F2843DE1E09E07A105B10560F6453DFE
:1035F000F1E05F076105710520F044ED51E060E006
:1036000070E0481B590BBC0164557C4FC8010E94F7
:103610007C35B9CF1296FC9012971396EC9040E04F
:103620006E2D8F2D0E94551C982789279827F80109
:103630009183808341E06E2D8F2D0E94551C982729
:1036400089279827D80113969C938E9312979BCF26
:10365000FC01258136813227232732272115FCE5FD
:103660003F0741F480910A0190910B01892B11F4DD
:1036700030E020E041E0D80114968C91811101C026
:1036800040E0F801638182810E948E1C7CCF40E281
:1036900050E06FEF70E00E949B3580910A01D801E5
:1036A0008C9380916D0211968C936DCF81E090E0A8
:1036B00090936E0280936D0282E390E090936C028F
:1036C00080936B020E94222D5ECF80910A01F80147
:1036D000808380916D02818380916B02828353CFBE
:1036E00040E250E0BC0112968D919C910E94C22054
:1036F0004ACFBC016F5F7F4F4FE150E0FC018281F8
:1037000093810E94F220D8018C933DCFBC016C5F65
:103710007F4F4CE150E0FC01828193810E940D219A
:10372000F2CF0E9472202FCFFC01828181112BCF1A
:1037300080E21D928A95E9F710821182128223CFCE
:10374000A5E0B0E0E6EAFBE10C9455359093F70272
:103750008093F602811520E2920730F40E94010561
:103760002596E2E00C94713580EF89838A8381E0AD
:103770008B830E94222D8160782F9D838C834981C9
:103780005A816B818D810E947B06EACFA5E0B0E073
:10379000ECECFBE10C9455359093F7028093F60224
:1037A000811520E2920730F40E9417052596E2E089
:1037B0000C94713580EF89838A831B820E94222DAD
:1037C0008160782F9D838C8349815A816B818D81A3
:1037D0000E947B06EBCFCF93DF93EC010E94A01BEE
:1037E0008091160390911703019730F4CE010E9447
:1037F000C61BDF91CF910895EFE9FFE03197F1F714
:1038000000C00000F1CF81E0089584E0089550E009
:10381000440F551F98E1699F400D511D112498E7F1
:10382000899F400D511D1124CA01879608950F9359
:103830001F93CF93DF938430C8F46530B8F44C30D5
:10384000A8F40E94071C8C010E94A235C82FD0E06A
:10385000DC2FCC27C80101960E94A2359E01282B9F
:10386000C901DF91CF911F910F91089590E080E001
:10387000F8CF0F931F93CF93DF93122F032F843032
:1038800078F4653068F44C3058F40E94071CEC0161
:10389000602F0E94B035612FCE0101960E94B03595
:1038A000DF91CF911F910F910895FF920F931F9376
:1038B000CF93DF93F42E843070F5623060F528E00A
:1038C000829F8001112434E0639FB0011124060F10
:1038D000171F095F1D4F82E090E0442311F090E034
:1038E00080E0800F911F0E94A235C82FD0E0DC2F0E
:1038F000CC2783E090E0FF2011F081E090E0800F82
:10390000911F0E94A2359E01282BC901CDB7DEB7B9
:10391000E5E00C946E3590E080E0F8CF0F931F93B4
:10392000CF93DF93142F022F843020F5623010F5EF
:1039300098E0899FE001112484E0689FB001112480
:10394000C60FD71FC95FDD4F82E090E0442311F01E
:1039500090E080E0632F8C0F9D1F0E94B03583E0C4
:1039600090E0112311F081E090E0602F8C0F9D1FFB
:103970000E94B035DF91CF911F910F91089584324D
:10398000910528F4895D9D4F0E94A235089580E03D
:1039900008958432910520F4895D9D4F0E94B035D1
:1039A0000895B0E0A0E0E7EDFCE10C94493580908B
:1039B0000A0190900B0181E090E090930B018093BD
:1039C0000A019CEAA92E92E0B92E2CEBC22E22E02D
:1039D000D22ED0E0C0E07601612C7C2E20C00E9467
:1039E000C20421E030E08C171D0641F03CF0F801E4
:1039F000EE0FFF1FEE0DFF1D25913491402F662D18
:103A0000872D0E94391C0F5F1F4F0C30110539F7AD
:103A100088E1E80EF11C639485E0681619F010E067
:103A200000E0DDCF750110E00E94C4048C171D0674
:103A300079F174F1F7012591349141E0612F872DDF
:103A40000E948E1CF70132962591349140E0612F3F
:103A5000872D0E948E1C84E0E80EF11C1130B1F419
:103A6000219688E0A80EB11C88E7C80ED11CC4308E
:103A7000D10509F0B0CF0E94722090920B01809284
:103A80000A01CDB7DEB7EEE00C94653511E0CCCF7E
:103A900021E030E041E0612F872D0E948E1C21E063
:103AA00030E0D4CFEF92FF920F931F93CF93DF9329
:103AB000EC018A017C01E60EF71ECE018796CE1539
:103AC000DF0529F4CDB7DEB7E6E00C946D35C03ED6
:103AD00021E0D20740F40E94A235F80180830F5FF5
:103AE0001F4F2196EACFF8011082F9CFB0E0A0E095
:103AF000ECE7FDE10C944F358C016A01803E91406A
:103B000080F480EE91E0801B910B8617970748F0B8
:103B10007801E60EF71EE801CE018796CE15DF0587
:103B200029F4CDB7DEB7E8E00C946B35C03E21E058
:103B3000D20740F4FE01E01BF10BEC0DFD1D60818E
:103B40000E94B0352196E8CF20916D0230916E022F
:103B5000232BC9F4703F39F4603FA9F48091F60239
:103B60009091F7020895843070F4753038F46C3019
:103B700050F4462F672F0E94171C08957D3F31F4A3
:103B800041E0623040F090E080E008957C3FD9F75A
:103B90006230C8F740E00E94551C089580E1089506
:103BA00085EB91E00895EF92FF920F931F93CF93CF
:103BB000DF93EC018A017C01E60EF71ECE01855BE6
:103BC0009D4FCE15DF0529F4CDB7DEB7E6E00C94A6
:103BD0006D35C53B21E0D20740F40E94A235F801C3
:103BE00080830F5F1F4F2196E9CFF8011082F9CF34
:103BF000B0E0A0E0EEEFFDE10C944F357C016A01EE
:103C00008C01060F171FEC01CE01855B9D4FC0177D
:103C1000D10729F4CDB7DEB7E8E00C946B35C53B8E
:103C200021E0D20740F4FE01EE19FF09EC0DFD1D65
:103C300060810E94B0352196E7CFCF93DF93CBE42C
:103C4000D2E060E0CE010E94B0352196C11584E03B
:103C5000D807B9F7DF91CF910895A4E0B0E0E3E38E
:103C6000FEE10C944E35F82E2FE0281708F4A5C07D
:103C70008FEF93E00E94A23581119FC00BE412E008
:103C8000F11036C019821A821B821C82BB24BA949E
:103C900078015FEFE51AF50AC8010E94A235898311
:103CA0001A82882309F489C0813009F07FC0680135
:103CB00082E0C80ED11CC7010E94A235E82E8A837B
:103CC000882309F47AC0C6010E94A235F82E8FEF2E
:103CD0008E0D8330D8F46801E3E0CE0ED11CFB8258
:103CE000FF2021F0CE0101960E94FA258601D0CF57
:103CF000011544E0140709F460C0C8010E94A23510
:103D0000811101C0FA940F5F1F4FBACF8BEF8E0D58
:103D1000833030F5C8010396FB826C01FF2031F33C
:103D20006801F4E0CF0ED11C0E94A2358C83882359
:103D3000E9F28B819C8181302FEF920710F0982F50
:103D4000882746E0E41631F057E0E51631F00E948E
:103D5000EB1BCCCF0E94A01BC9CF0E94C61BC6CFB5
:103D600084E0E812C3CF6801E4E0CE0ED11CC801A4
:103D700003960E94A235FF2001F18823F1F08150C3
:103D8000990BB89E9001B99E300D11244F2D4150D2
:103D9000550BCA01820F931F019708F4A7CFEFE9D3
:103DA000FFE03197F1F700C00000F6CF6AE0CE01E6
:103DB00001960E949425670199CF2496E9E00C941E
:103DC0006A35E8EFF2E0848195812AE030E0B901BC
:103DD0000E941035609309018681809308018285D5
:103DE0008093070184858093060186859785B901B4
:103DF0000E941035609305018089809304018289B7
:103E0000809303018489809302010895B0E0A0E0CB
:103E1000ECE0FFE10C944D358FEF9FEF44305105FE
:103E200008F469C04091E00241FB882780F990E0E6
:103E3000880F991F42FB002700F910E0000F111FA7
:103E4000000F111F802B912B40FBCC24C0F8D12CEC
:103E50008C299D2943FB222720F9C22FE0E0DE2F89
:103E600053E0CC0FDD1F5A95E1F78C2B9D2B44FBC3
:103E7000AA27A0F9B0E0E4E0AA0FBB1FEA95E1F79A
:103E80008A2B9B2B45FBEE27E0F9F0E0A5E0EE0F37
:103E9000FF1FAA95E1F78E2B9F2B46FB222720F9C7
:103EA00030E0B6E0220F331FBA95E1F7822B932B57
:103EB00047FB222720F930E03695322F222737950D
:103EC0002795822B932B2091E102322F3170F32E14
:103ED000E82EF92A26952170B22EBB0CA82EBF28F9
:103EE000C501BB0CAA0BBB0BFB0180839183A28392
:103EF000B38390E080E0CDB7DEB7EAE00C9469359B
:103F0000CF92DF92EF92FF928FEF9FEF44305105F7
:103F100008F46AC0FB01C080D180E280F3800E9477
:103F200021088091E002C0FA80F9B701A6017695D8
:103F300067955795479540FB81F9B701A60122E0A7
:103F400076956795579547952A95D1F740FB82F965
:103F5000B701A60133E076956795579547953A9551
:103F6000D1F740FB83F9B701A601E4E076956795A8
:103F700057954795EA95D1F740FB84F9B701A6011B
:103F8000F5E07695679557954795FA95D1F740FBFB
:103F900085F9B701A601A6E07695679557954795EF
:103FA000AA95D1F740FB86F9B701A601B7E076954F
:103FB000679557954795BA95D1F740FB87F9809358
:103FC000E0028091E102D0FA80F9D1FACC24C0F865
:103FD000C0FA81F98093E1028091E0029091E102C0
:103FE0000E94201190E080E0FF90EF90DF90CF9052
:103FF00008958091F8029091F9020E945D2708953A
:10400000DB01FC013296259134914217530758F099
:10401000FC01349665917491A901CD010E949235FD
:1040200090E080E008958FEF9FEF08950F931F9326
:10403000CF93DF9308EF12E0D0E0C0E0CE010E9402
:10404000BF1CF80161918F01861719F0CE010E9403
:10405000C91C2196C432D10589F7DF91CF911F91F8
:104060000F910895DA019C012E5F3F4FF9014591B0
:104070005491F90125913491A217B30758F0FC012E
:104080003496859194910E9492350E94162090E07A
:1040900080E008958FEF9FEF08950F931F93CF93C4
:1040A000DF9308EF12E0D0E0C0E0CE010E94BF1C19
:1040B000F80181938F012196C432D105B1F7CAE886
:1040C000D5E0FE0185919491009711F0FC010995CE
:1040D0002C96F6E0C638DF07A1F7DF91CF911F914C
:1040E0000F910895E8EFF2E0128E138E8FEA90E0C0
:1040F0009183808325E0248F88E893E193838283F2
:104100008AE090E09583848344E150E057834683BE
:1041100068E070E071876087938782874EE150E0A6
:10412000558744879787868740E550E0518B408BC1
:10413000738B628B68E270E0758B648B62E370E076
:10414000778B668B68EC70E0718F608F158E978F20
:10415000868F51A340A322A30E9416200E9421080B
:104160001092E1021092E002E1EEF2E080818460C0
:1041700080838091E0029091E1020E9420110E94D0
:104180004D200895EF92FF920F931F93CF93DF93EB
:104190007C01EB018A016FEF70E0CE010E949B353C
:1041A00020E835E0ACE7B6E090E080E0AC014E5F9F
:1041B0005F4F0417150788F0F90165917491E616B1
:1041C000F70630F48C0F9D1FFC0171836083CA01D8
:1041D000245F3F4FA217B30749F7CDB7DEB7E6E03C
:1041E0000C946D359C0180E895E0FC01A591B4919B
:1041F0002A173B0741F00C96E6E08C379E07A9F79B
:104200008FEF9FEF0895FC0136962591349121158B
:104210003105B1F3F901099508950F931F93CF93D9
:10422000DF93C0E8D5E0FE01259134918217930712
:1042300041F02C9626E0CC37D207A9F70FEF1FEFFD
:1042400015C0FE0138962591349121153105B1F341
:10425000CE01F90109958C01892B41F4FE013A96B2
:1042600085919491009711F0FC010995C801DF91A7
:10427000CF911F910F91089580911503817008953A
:10428000809115038695817008958091150382FBB6
:10429000882780F908958091150383FB882780F98A
:1042A00008958832910538F48E319105E8F4049729
:1042B000A0F480E008958933910558F48D3291057A
:1042C00010F48B97B1F78091130382FB882780F954
:1042D00008C084369105B9F3ECCF80911303829521
:1042E000817091E0892708958091130383FB8827CB
:1042F00080F9F7CF8091130385FB882780F9089513
:104300008091130386FB882780F90895B0E0A0E030
:10431000ECE8F1E20C944F356C017B0164E670E04F
:1043200088E70E94DB2AEC0197FD12C010E000E054
:10433000F601E00FF11F849164E670E00E94472BC4
:10434000EC01892B29F40F5F1F4F0E151F0581F714
:104350000E94BD2BCE01CDB7DEB7E8E00C946B35E3
:104360000895ECE1F3E080E092E0DF019C011D9212
:1043700021503040E1F7F0932105E09320058FEFC5
:104380009FEF909395028093940208950E94B0212C
:104390000E94B4048093900280FD0FC080E8809357
:1043A0008F020E94D52A6DE070E083E996E00E94BA
:1043B0008621892B21F080E0089580E2F0CF809162
:1043C000900263E070E081FD26C080E996E00E94E3
:1043D0008621892B81F76DE070E080E896E00E94ED
:1043E0008621892B41F70E942E2D605A75418F4FEF
:1043F0009F4F60931C0570931D0580931E0590933D
:104400001F050E94B12181E0809393028093920264
:104410001092910208958DE896E0D9CF20918F02F5
:1044200036E0839FC0011124629F800D911D1124ED
:10443000811522E0920714F090E080E0845E9C4FAA
:1044400090932105809320050895CF93DF932091C9
:104450002005309121052C513340A901460F571FEB
:104460004130524020F060E072E0621B730B4091DB
:10447000940250919502FC01C901620F731FC1E0C3
:10448000D0E08617970738F0509395024093940236
:10449000DF91CF9108952491DC01A45EBC4F3C9143
:1044A000321781F02C939C01A5E036952795AA95AB
:1044B000E1F7DE0102C0AA0FBB1F2A95E2F79D01BA
:1044C0004A2B532B01963196DCCF809193028111B8
:1044D00003C08091920208950E942E2D605A75416A
:1044E0008F4F9F4F60931C0570931D0580931E0591
:1044F00090931F05809192028111EBCF62E070E0F2
:104500008EE796E00E948621892B19F781E080933F
:104510009202DFCF2F923F925F926F927F928F92A3
:104520009F92AF92BF92CF92DF92EF92FF920F9342
:104530001F93CF93DF9380919302882369F020919A
:104540009402309195022115310531F0809191024C
:1045500061E070E0882399F0DF91CF911F910F9176
:10456000FF90EF90DF90CF90BF90AF909F908F9093
:104570007F906F905F903F902F9008958F5F082FEE
:1045800010E01B01082E02C0220C331C0A94E2F733
:10459000A90142215321452B89F39091900290FD6E
:1045A00044C08295880F807680930E0198013695DD
:1045B00027953695279520931101815E80930F01F1
:1045C0001092120124E630E047E050E06CE071E028
:1045D00088E70E94752B892B09F0BECFA80125E042
:1045E000440F551F2A95E1F78091900280FD2BC062
:1045F000445E5C4F04E610E020E230E060E488E7CF
:104600000E94962B892B09F0A7CF0E946522E10119
:10461000C095D0958091940290919502C823D9239A
:10462000D0939502C093940297CF880F880F880F7C
:1046300080930E0110921101895F80930F0183E036
:1046400080931201BFCFEFE6F2E080E2DF011D921E
:104650008A95E9F7A2EAB1E00EE911E086EAC82EF0
:1046600081E0D82E97E0592E772473948D91E8013C
:1046700029918E01240F352F311D245E3C4FE82FE8
:10468000F0E0E159FD4F90E080E0652C681A872C3E
:10469000082E01C0880C0A94EAF77901A12CE701E1
:1046A000B9907E01B820662D6A196770962E062E85
:1046B000000C770BDB2D01C0DD0F9A94EAF77195A2
:1046C000619571096770772701C0B6946A95EAF71A
:1046D000BD2A6081962E9B289082A39468E0A61242
:1046E000DECF019631968830910579F6CA16DB0641
:1046F00009F0BCCF04E610E020E230E04FE652E0E3
:104700007DCF8091920290919302911103C091E02C
:1047100089270895882369F062E070E08CE796E0CD
:104720000E948621892B19F080919202089510929F
:10473000920280919202EBCF0E94B60408950F93EB
:104740001F9380919302882309F160E080E00E942A
:104750000E220E949C230E948A228091920288232A
:10476000A9F00E942E2D00911C0510911D0520918D
:104770001E0530911F05601B710B820B930B6F3F61
:104780007F4F8F4F9F4710F40E9481231F910F91FD
:104790000895CF93DF93EC01FB018281882309F414
:1047A00064C1C330FDE5DF07E0F5CA3F9CE5D907EA
:1047B00030F49E0122503C4524313105D8F50E9449
:1047C00012119093E1028093E002C231ECE5DE0722
:1047D00009F41FC108F06EC0C9308CE5D80709F490
:1047E000F2C008F03FC0C530ECE5DE0709F4DBC0DD
:1047F00058F5C3308CE5D80709F4CDC008F0CFC018
:104800008091E0028160C230DC4509F4AEC0809145
:10481000E0029091E1020E9420110E94210880E0B4
:1048200009C0C53AEDE5DE0751F238F4C1369DE521
:10483000D90729F2DF91CF9108959E012D5A3D4568
:1048400023303105B8F7BBCF8091E0028062C730DA
:10485000FCE5DF0709F489C008F4B1C08091E002EB
:10486000806483C0CD309CE5D90709F4BAC070F4E8
:104870008091E0028E7FCB30FCE5DF0709F475C044
:1048800008F4A7C08091E0028D7F6FC0CF309CE517
:10489000D90709F4B6C008F4A8C0C031FCE5DF07A9
:1048A00009F4B3C0C131DC4509F0B1CF8091E00219
:1048B0008F7B5BC0CF3F9CE5D90709F4B4C098F566
:1048C000CA3FFCE5DF0709F472C0B8F4C4319CE5C7
:1048D000D90709F4B6C008F4A2C0C531DC4509F017
:1048E00096CF8091E00282FB992790F921E09227F0
:1048F00090FB82F990FB83F938C0CC3F8CE5D80758
:1049000009F477C008F457C0CD3FECE5DE0709F4A1
:1049100074C08091E1028360CE3FDC4509F077CF1F
:104920008093E10274CFC1368DE5D80709F496C0B3
:1049300068F4C130EDE5DE0709F48CC008F477C0F7
:10494000C230DD4509F063CF80E085C0CD3A9DE5FA
:10495000D907E9F068F49091E002892F8E7F90FFEB
:104960008160C53ADD4509F052CF8093E0024FCF18
:10497000CE3A8DE5D80789F1CF3ADD4509F047CF2A
:104980009091E102892F877F93FF8860C9CF809142
:10499000E1028860C5CF8091E0028260E6CF80911D
:1049A000E0028460E2CF8091E0028860DECF8091F7
:1049B000E1028160B5CF8091E1028260B1CF809148
:1049C000E0028061D2CF0E9421088091E0028068DD
:1049D000CCCF8091E0028C60C8CF8091E102877FCC
:1049E0009FCF8091E0028B7FC0CF8091E002877FD4
:1049F000BCCF8091E1028E7F93CF8091E1028D7FC9
:104A00008FCF8091E0028F7EB0CF8091E0028F7DCA
:104A1000ACCF0E9421088091E0028F77A6CF8091D1
:104A2000E002837FA2CF8091E1028C7F79CF8091D9
:104A3000E102982F909591708E7F892B90FB81F9E0
:104A40006FCF0E9421089091E002892F97FB87F990
:104A500080588BCF81E00E94AC11D9CE9091E002BA
:104A6000892F8F7E94FF806180CF81E0E3CEB0E01C
:104A7000A0E0EDE3F5E20C945035E82FF0E0E056CD
:104A8000F94FD490282F26952695269530E0F901E8
:104A9000E05CF84F0491877010E0082E02C0159575
:104AA00007950A94E2F701701127F901E05DF84FCC
:104AB000E490F12C082E02C0F594E7940A94E2F7F2
:104AC00091E0E922FF24F901E05EF84FC491D0E0C3
:104AD00002C0D595C7958A95E2F7C170DD2701150B
:104AE000110519F081EE0E94E006E114F10419F0BD
:104AF00086EE0E94E0068D2D0E94E207E114F1048B
:104B000019F086EE0E9471070115110519F081EE6A
:104B10000E947107CD2B19F08CE20E94E207CDB7FD
:104B2000DEB7E7E00C946C35EF92FF920F931F9382
:104B3000CF93DF93EC01162F0AE08881882309F4D4
:104B400054C0813009F04EC08981813099F47E01D2
:104B500022E0E20EF11C8A810E94E207E701219621
:104B6000812F815050F3EFE9FFE03197F1F700C05A
:104B70000000F7CF823041F47E0182E0E80EF11CA4
:104B80008A810E94E006EACF833041F47E01E2E0B0
:104B9000EE0EF11C8A810E947107E0CF843011F083
:104BA0002196DDCF2A81229690E080E0AE014F5F12
:104BB0005F4F2053330B2A30310548F0019778F2CC
:104BC000EFE9FFE03197F1F700C00000F7CF089F51
:104BD000B001099F700D1124C901860F971F29810B
:104BE000EA01E4CF0E943725BACFCDB7DEB7E6E0C1
:104BF0000C946D3560E00E94942508958091130116
:104C0000877F8093130182E00E94F50F809113014A
:104C100084FF06C08F7E8093130182E00E94DF0F25
:104C20008091130185FF06C08F7D8093130180E280
:104C30000E94DF0F0E9438100895CF93DF93EC019C
:104C4000662319F082E00E94EF0FCE019056811585
:104C500020E2920720F0905E8115904108F4DD2754
:104C6000CE010E940105DF91CF9108959C0130563D
:104C7000211540E2340720F0305E2115304108F460
:104C800099270E9417050895FC0123E0F695E79502
:104C90002A95E1F7EE71FF27EA56FD4F2081318119
:104CA000AC014F70552781E090E002C0880F991F3A
:104CB0004A95E2F7662329F0822B932B9183808318
:104CC00008958095909582239323F8CFFC0123E0EB
:104CD000F695E7952A95E1F7EE71FF27EA56FD4F25
:104CE0008F70992721E030E002C0220F331F8A9590
:104CF000E2F7808191812823392381E0232B09F475
:104D000080E00895B0E0A0E0E8E8F6E20C945035C9
:104D1000EC017B01D42E89018091130182FF83C0B5
:104D20002091BC023091BD022C173D0719F020974D
:104D300009F079C0909113019B7F9093130161E07A
:104D400091FD10C08091BE029091BF02A701481B47
:104D5000590B61E080911401909115014817590792
:104D600008F460E061708091130160FB81F9809329
:104D70001301C9010E9444260E94DC0F81FF08C074
:104D80008091130180618093130182E00E94E50FFE
:104D90000E94DC0F85FF08C0809113018062809320
:104DA000130180E20E94E50F609113016695617026
:104DB000A8018091BC029091BD020E941D26D110D5
:104DC00014C08091160390911703019728F5609104
:104DD000130166956170A8018091BC029091BD029B
:104DE0000E9436260E94FE252DC0B8018091BC028B
:104DF0009091BD020E947A21882319F3B801809115
:104E0000BC029091BD020E9480218111DACFCDB702
:104E1000DEB7E7E00C946C35EFE9FFE03197F1F78E
:104E200000C00000D2CFCE010E946626A801682FE4
:104E3000CE010E9436268091BC029091BD028C1753
:104E40009D0781F2F092BF02E092BE02E0CF809116
:104E5000130380FF1EC08091130182FF1AC00E94BD
:104E6000222D2091BE023091BF02AC01421B530B98
:104E700020911401309115014217530750F026EB91
:104E800032E041E0BC018091BC029091BD020E94E1
:104E90008226089590911301892F8E7F90FF816063
:104EA000809313010E94FE250895809113018E7F47
:104EB000809313010E94FE2508959093150180931D
:104EC00014010895CF92DF92EF92FF921F93CF9338
:104ED000DF93EC017B018091130380FD0AC011E098
:104EE000812FDF91CF911F91FF90EF90DF90CF90B6
:104EF00008950E94222D6C01F7018281882391F18F
:104F00008091130182FF08C026EB32E040E0B60139
:104F100090E080E00E948226CB31FCE5DF07C9F0FB
:104F2000CC312CE5D207D9F0CA313CE5D30711F4D6
:104F30000E944A27CE0190568115E0E29E0720F09C
:104F4000905E81159041E0F41092BD021092BC0277
:104F5000C6CF80911301816080931301EBCF0E9433
:104F60005527E8CF809113018F7EC13ED10531F0E6
:104F7000C53ED105B9F5809113018F7D8093130152
:104F80008091130180FFABCFB701CE010E94512168
:104F9000F7011281882309F4C0C0112309F4B6C0B7
:104FA0000E94DC0F182F0E94FF0F812B8D7FB9F11B
:104FB0001092BD021092BC028091130381FD2FC09C
:104FC00060E0CE010E944426A70160E0CE010E946D
:104FD0001D260E94FF0F8D7F0E94131082E00E9409
:104FE000B2106AC0CE019056811520E2920720F0DF
:104FF000905E8115904120F68091130182FF6FCF62
:10500000B701CE010E944021811169CF26EB32E029
:1050100040E0B60190E080E00E94822660CF86E00A
:10502000F701A6EBB2E001900D928A95E1F710929C
:10503000B8021092BA021092B9028091BC0290910B
:10504000BD02C817D90709F042C0B701CE010E94BE
:105050007A218823E1F18091130181FD2FC0809195
:10506000BE029091BF029601281B390B283C3105E6
:1050700070F50E94DC0F81FF08C0809113018061F0
:105080008093130182E00E94E50F0E94DC0F85FFF0
:1050900008C08091130180628093130180E20E9416
:1050A000E50F6091130166956170A7018091BC02C4
:1050B0009091BD020E941D2610E012CFB701809191
:1050C000BC029091BD020E9480218111C8CF0E9434
:1050D000DC0F182F0E94FF0F812B9091130181FB91
:1050E00091F9909313010E94FF0F8D7F0E9413107E
:1050F000D093BD02C093BC02D092BF02C092BE0248
:105100008091130184608093130168CF970140E080
:10511000B601CE010E948226E3CE111115CFDFCE5B
:105120008FE891E00197F1F700C000000895FF9229
:105130000F931F93CF93DF9382E08093C20208EB1B
:1051400011E0C6EBD1E0AE01D80121E030E08D9155
:10515000E82FE295EF70F0E0F1A08F70B90101C087
:10516000660F8A95EAF7962F90959F2191A382A1C9
:10517000862B82A3FA018191AF01E82FE295EF70AF
:10518000F0E0F1A08F70B90101C0660F8A95EAF7CF
:10519000962F90959F2191A382A1862B82A3F1E067
:1051A000AA3BBF07A1F60E9490286091C20245EC7D
:1051B00052E0FA018E2F841B861728F0CDB7DEB798
:1051C000E5E00C946E35D8012D918D01A22FA295AA
:1051D000AF70B0E090968C9190E02F7002C09595E2
:1051E00087952A95E2F781709991A92FA295AF70C2
:1051F000B0E090962C9130E09F7002C035952795D5
:105200009A95E2F790E020FD92E0892B8193D2CF2E
:10521000A4E1B0E0EEE0F9E20C944A3510E000E0E1
:1052200084E0C82ED12C9CEF992E882483942DEFF6
:10523000722E8091C202181728F0802F6496EDE03C
:105240000C946635E12EF12CF701E854FE4F808175
:10525000E82FE295EF70F0E0E0A1F0E08F7002C07F
:10526000F595E7958A95E2F7E170D701AA54BE4F0C
:105270002C91A22FA295AF70B0E090968C9190E007
:105280002F7002C0959587952A95E2F780FD91C011
:1052900080E08E2BD701AB53BD4FEC919E2F9370C6
:1052A000981709F484C0EE0FEE0FE82BEC93EF7023
:1052B000F0E0EA55FE4FC7018D539D4F5C018081A0
:1052C000F5019081890F808320E084308CF1F70113
:1052D000E054FD4F80818F5F80830E94222D1B87C9
:1052E0007C868D868160782F9F878E87412F5DEF2A
:1052F00061E08F850E947B068FE39FE10197F1F7C4
:1053000000C000000E94222D188B798A1A8A8160C1
:10531000782F9C8B8B8B412F5DEF60E08C890E94F6
:105320007B06EFE3FFE13197F1F700C0000021E0D9
:10533000F50180818D3F8CF5F701E054FD4F8081B0
:10534000815080830E94222D19839A828B828160F2
:10535000782F9D838C83412F5CEF61E08D810E94CB
:105360007B068FE39FE10197F1F700C000000E94E8
:10537000222D1E839F8218868160782F9A878987C5
:10538000412F5CEF60E08A850E947B06EFE3FFE13E
:105390003197F1F700C0000021E0F5018081082E6F
:1053A000000C990BB6010E9424358083022B1F5FED
:1053B00040CF82E06ECFCF93DF93EB0186319C45E7
:1053C00009F03BC00E94DC0F982F9A7A20911203BB
:1053D00020FF04C0382F347409F090E021FF04C08E
:1053E000382F317109F090E022FF04C0382F38784F
:1053F00009F090E023FF03C0827209F090E08A81F7
:10540000882389F081E0911101C080E08093C70278
:1054100089E2911185E30E947D0F0E94381080E09F
:10542000DF91CF9108958091C702811104C089E274
:105430000E94850FF2CF85E3FBCF81E0F1CF0F9380
:105440001F93CF93DF93C42FD22FFC018281882337
:10545000C9F04093CA020E94222D9093C902809302
:10546000C80280E28C0F883040F4C77081E001C030
:10547000880FCA95EAF70E94EF07DF91CF911F913D
:105480000F9108951091CA02141332C08091C8027E
:105490009091C9020E943A2D883C910548F5C0E2DE
:1054A000CD0F1D17B9F080E2810F883040F41770DE
:1054B00081E001C0880F1A95EAF70E94F607C8300C
:1054C00048F481E09D2F977001C0880F9A95EAF704
:1054D0000E94EF07802F0E94E207C83070F6D77055
:1054E00081E001C0880FDA95EAF70E94F607C5CF80
:1054F00080E28C0F883008F6C77081E001C0880F09
:10550000CA95EAF7F2CF0F939C01CB01233F4CE5FC
:10551000340759F1A8F4283DFCE53F0701F1293D86
:105520004CE53407D1F1273D3C4591F406E221EEEC
:1055300041EE67ED7CE50E941F2A80E00F910895FF
:10554000253FFCE53F07E9F0B0F0263F3C45F9F088
:10555000FC018281882339F11092CA02EFCF07E261
:1055600025EE45EE68ED7CE5E6CF06E221EE40EE65
:1055700063EF7CE5E0CF07E225EE44EE64EF7CE5E7
:10558000DACF06E221EE42EE65EF7CE5D4CF07E20A
:1055900025EE46EE66EF7CE5CECF08E221E045EE53
:1055A00069ED7CE5C8CF81E0C9CF1092B9008CE0ED
:1055B0008093B8000895B0E0A0E0E1EEFAE20C9428
:1055C0004C35B82EEB010E94222D6C01EE24E394A1
:1055D000F12CC431D10560F025E0E22EF12CCF3F53
:1055E000DC0731F0CE0164E170E00E9410357B01F0
:1055F00084EAA82E94E8992E1092BC00A092BC00D8
:105600000E94222D8C018091BC0087FF0DC08091EB
:10561000B900887F8830F9F08091B900887F8031A7
:10562000D1F00FEF1FEF08C0C8010E943A2DE81615
:10563000F90648F70EEF1FEFCF3FDC07E9F2C6018E
:105640000E943A2DC817D907B8F6C801CDB7DEB702
:10565000EBE00C946835B092BB009092BC000E94C5
:10566000222D8C018091BC0087FF0AC08091B90077
:10567000887F883111F08034A1F610E000E0E5CF9A
:10568000C8010E943A2DE816F90660F7D3CF0F93B0
:105690001F93CF93DF93EB018093BB0084E880934B
:1056A000BC000E94222D8C018091BC0087FF11C09C
:1056B0002091B900287F81E090E0283211F490E039
:1056C00080E0919581959109DF91CF911F910F9184
:1056D0000895CF3FDC0741F3C8010E943A2DC81757
:1056E000D90710F78EEF9FEFEFCFB0E0A0E0EBE728
:1056F000FBE20C944F356B018A017901B9010E94DC
:10570000DB2AE6010C0D1D1DC017D10711F097FF14
:1057100008C024E92093BC00CDB7DEB7E8E00C94C4
:105720006B35B70189910E94472BEECFB0E0A0E026
:10573000ECE9FBE20C944F35C62F6A017901B80100
:105740000E94DB2A97FD0CC0B8018C2F0E94472BCA
:10575000E601EC0CFD1CCE15DF0511F097FF08C02B
:1057600024E92093BC00CDB7DEB7E8E00C946B359C
:10577000B80189910E94472BEECF84E98093BC0049
:1057800008959093CB018093CA0108959093D0021D
:105790008093CF020895E091CF02F091D00230972C
:1057A00029F00190F081E02D0995089580E0089599
:1057B000E091CF02F091D002309721F00280F38186
:1057C000E02D09950895E091CF02F091D002309735
:1057D00039F022E0DC012C930480F581E02D09955D
:1057E00008952091CD023091CE022817390771F02B
:1057F0009093CE028093CD02E091CF02F091D0023F
:10580000309721F00680F781E02D099508952091C9
:10581000CB023091CC022817390771F09093CC025B
:105820008093CB02E091CF02F091D002309721F02B
:105830000084F185E02D099508959C012E5F3F4F6E
:10584000AC01485F5F4F80E02417350709F40895E5
:10585000F90191919F019923B9F38F5FF5CF6623E9
:1058600049F0FC01329608962191261729F0E81795
:10587000F907D1F780E0089581E008959C01FC01CB
:1058800032969FEF80E04191461751F09F3F19F407
:10589000411101C0982F8F5F8630A9F79F3F09F40F
:1058A0000895290F311D97FD3A95F90162830895F6
:1058B000FC01329608962191261303C0DF0111974F
:1058C0001C92E817F907B9F708950E943E2C089535
:1058D0000E94582C0895029626E0FC0111922A9508
:1058E000E9F7089546E050E00E94853521E0892BD4
:1058F00009F420E0822F089508950E947C2C0895D9
:10590000811106C081E08093D1020E947D2C089510
:1059100082E0F9CF83E08093D1020E947D2C08952C
:105920000E94802C089581E08093D1020E947D2CFA
:1059300008950E94932C0895089508950E949D2C27
:105940000895089508950E949C2C0895CF930E9475
:10595000A12C0E9492150E94A22CC0E08C2F0E94C4
:10596000C714892B31F4CF5FC530C1F780E0CF91E8
:10597000089581E0FCCF85B7806885BF85B78068D2
:1059800085BF08951F921FB61F9211248F939F9376
:10599000AF93BF938091D202811113C080912205F1
:1059A00090912305A0912405B09125054196A11D54
:1059B000B11D8093220590932305A0932405B093F5
:1059C0002505BF91AF919F918F911F901FBE1F9092
:1059D000189580912A05843031F10E94300610928A
:1059E000D20288E190E020E40FB6F894A895809365
:1059F00060000FBE2093600083B7817F846083BF07
:105A000083B7816083BF7894889583B78E7F83BF87
:105A10000FB6F894A895809160008861809360002B
:105A2000109260000FBE08950E9421080E94370660
:105A3000089582E084BD93E095BD9AEF97BD809371
:105A40006E0008952FB7F894809122059091230558
:105A5000A0912405B09125052FBF08952FB7F89484
:105A60006091220570912305809124059091250570
:105A70002FBF08959C014FB7F89480912205909113
:105A80002305A0912405B09125054FBF821B930BE0
:105A9000089578941F921FB61F9211248F939F939D
:105AA000AF93BF938091220590912305A091240587
:105AB000B09125050196A11DB11D809322059093FB
:105AC0002305A0932405B0932505BF91AF919F9125
:105AD0008F911F901FBE1F90189581E08093E0006A
